{
  "contractName": "Crowdsourcing",
  "abi": [
    {
      "constant": true,
      "inputs": [],
      "name": "lastest_task",
      "outputs": [
        {
          "name": "",
          "type": "uint256"
        }
      ],
      "payable": false,
      "stateMutability": "view",
      "type": "function",
      "signature": "0x87b9f7df"
    },
    {
      "constant": true,
      "inputs": [],
      "name": "MAX_TASK",
      "outputs": [
        {
          "name": "",
          "type": "uint256"
        }
      ],
      "payable": false,
      "stateMutability": "view",
      "type": "function",
      "signature": "0xbc52a285"
    },
    {
      "constant": true,
      "inputs": [],
      "name": "token",
      "outputs": [
        {
          "name": "",
          "type": "address"
        }
      ],
      "payable": false,
      "stateMutability": "view",
      "type": "function",
      "signature": "0xfc0c546a"
    },
    {
      "inputs": [
        {
          "name": "erc20",
          "type": "address"
        }
      ],
      "payable": true,
      "stateMutability": "payable",
      "type": "constructor",
      "signature": "constructor"
    },
    {
      "payable": true,
      "stateMutability": "payable",
      "type": "fallback"
    },
    {
      "anonymous": false,
      "inputs": [
        {
          "indexed": false,
          "name": "taskId",
          "type": "uint256"
        },
        {
          "indexed": false,
          "name": "newStage",
          "type": "uint256"
        },
        {
          "indexed": false,
          "name": "oldStage",
          "type": "uint256"
        }
      ],
      "name": "StageTransfer",
      "type": "event",
      "signature": "0xf8efcd9fd5385496683a4740418ff86e22055114151388eef0439e0d7e6147be"
    },
    {
      "anonymous": false,
      "inputs": [
        {
          "indexed": false,
          "name": "taskId",
          "type": "uint256"
        }
      ],
      "name": "Solicit",
      "type": "event",
      "signature": "0xd2ec9a157bded18c3b7dac7f785dcdb2132de6cdf1f8ec1e3d071245c5bf524e"
    },
    {
      "anonymous": false,
      "inputs": [
        {
          "indexed": false,
          "name": "taskId",
          "type": "uint256"
        },
        {
          "indexed": false,
          "name": "registerNumber",
          "type": "uint256"
        }
      ],
      "name": "Register",
      "type": "event",
      "signature": "0xe23550ce55546f73f971a932ee4b14cd8070fc95c7da57ac7e4337476b5604d1"
    },
    {
      "anonymous": false,
      "inputs": [
        {
          "indexed": false,
          "name": "taskId",
          "type": "uint256"
        },
        {
          "indexed": false,
          "name": "submitNumber",
          "type": "uint256"
        }
      ],
      "name": "Submit",
      "type": "event",
      "signature": "0x44b5fec903dddbb301d98f93c3401460e2dafd2842a834056f5eda4530663809"
    },
    {
      "anonymous": false,
      "inputs": [
        {
          "indexed": false,
          "name": "taskId",
          "type": "uint256"
        },
        {
          "indexed": false,
          "name": "aggregateResult",
          "type": "bytes"
        }
      ],
      "name": "Aggregate",
      "type": "event",
      "signature": "0xc031c425cd768fbe419003ae191109dad23a5881a955690b11ceed516b27c26a"
    },
    {
      "anonymous": false,
      "inputs": [
        {
          "indexed": false,
          "name": "taskId",
          "type": "uint256"
        }
      ],
      "name": "Approve",
      "type": "event",
      "signature": "0x77b92c0722e5bbe8d1413b7fbec6093bc4dc966a65832498dc8c2c67d9a937cc"
    },
    {
      "anonymous": false,
      "inputs": [
        {
          "indexed": false,
          "name": "taskId",
          "type": "uint256"
        },
        {
          "indexed": false,
          "name": "claimNumber",
          "type": "uint256"
        }
      ],
      "name": "Claim",
      "type": "event",
      "signature": "0x022e3d29644ead4083349ca84d24bcac368b2461819b70f5921fea15de4dec4d"
    },
    {
      "constant": false,
      "inputs": [
        {
          "name": "erc20",
          "type": "address"
        }
      ],
      "name": "changeERC20Contract",
      "outputs": [],
      "payable": false,
      "stateMutability": "nonpayable",
      "type": "function",
      "signature": "0x38e33e43"
    },
    {
      "constant": true,
      "inputs": [
        {
          "name": "task_id",
          "type": "uint256"
        }
      ],
      "name": "getStageOfTask",
      "outputs": [
        {
          "name": "",
          "type": "uint256"
        }
      ],
      "payable": false,
      "stateMutability": "view",
      "type": "function",
      "signature": "0x5d3154e7"
    },
    {
      "constant": true,
      "inputs": [
        {
          "name": "task_id",
          "type": "uint256"
        }
      ],
      "name": "getSolicitInfoOfTask",
      "outputs": [
        {
          "name": "",
          "type": "uint256"
        },
        {
          "name": "",
          "type": "uint256"
        },
        {
          "name": "",
          "type": "address"
        },
        {
          "name": "",
          "type": "uint256"
        }
      ],
      "payable": false,
      "stateMutability": "view",
      "type": "function",
      "signature": "0x3d853a96"
    },
    {
      "constant": true,
      "inputs": [
        {
          "name": "task_id",
          "type": "uint256"
        },
        {
          "name": "index",
          "type": "uint256"
        }
      ],
      "name": "getSubmitDataOfTask",
      "outputs": [
        {
          "name": "",
          "type": "bytes"
        }
      ],
      "payable": false,
      "stateMutability": "view",
      "type": "function",
      "signature": "0x155c4e9d"
    },
    {
      "constant": true,
      "inputs": [
        {
          "name": "task_id",
          "type": "uint256"
        }
      ],
      "name": "getSubmitCountOfTask",
      "outputs": [
        {
          "name": "",
          "type": "uint256"
        }
      ],
      "payable": false,
      "stateMutability": "view",
      "type": "function",
      "signature": "0x51ddbbe0"
    },
    {
      "constant": true,
      "inputs": [
        {
          "name": "task_id",
          "type": "uint256"
        }
      ],
      "name": "getRegisterNumberOfTask",
      "outputs": [
        {
          "name": "",
          "type": "uint256"
        }
      ],
      "payable": false,
      "stateMutability": "view",
      "type": "function",
      "signature": "0xd0f02e64"
    },
    {
      "constant": true,
      "inputs": [
        {
          "name": "task_id",
          "type": "uint256"
        }
      ],
      "name": "getClaimNumberOfTask",
      "outputs": [
        {
          "name": "",
          "type": "uint256"
        }
      ],
      "payable": false,
      "stateMutability": "view",
      "type": "function",
      "signature": "0xf962a813"
    },
    {
      "constant": true,
      "inputs": [
        {
          "name": "task_id",
          "type": "uint256"
        }
      ],
      "name": "getAggregationResultOfTask",
      "outputs": [
        {
          "name": "",
          "type": "bytes"
        }
      ],
      "payable": false,
      "stateMutability": "view",
      "type": "function",
      "signature": "0x2a18d058"
    },
    {
      "constant": true,
      "inputs": [
        {
          "name": "task_id",
          "type": "uint256"
        },
        {
          "name": "index",
          "type": "uint256"
        }
      ],
      "name": "getSubmitProofOfTask",
      "outputs": [
        {
          "name": "",
          "type": "bytes"
        }
      ],
      "payable": false,
      "stateMutability": "view",
      "type": "function",
      "signature": "0x1f87e627"
    },
    {
      "constant": true,
      "inputs": [
        {
          "name": "task_id",
          "type": "uint256"
        },
        {
          "name": "user",
          "type": "address"
        }
      ],
      "name": "isQualifiedProviderForTask",
      "outputs": [
        {
          "name": "",
          "type": "bool"
        }
      ],
      "payable": false,
      "stateMutability": "view",
      "type": "function",
      "signature": "0x0a2f474a"
    },
    {
      "constant": true,
      "inputs": [
        {
          "name": "task_id",
          "type": "uint256"
        },
        {
          "name": "user",
          "type": "address"
        }
      ],
      "name": "isRegisteredOfTask",
      "outputs": [
        {
          "name": "",
          "type": "bool"
        }
      ],
      "payable": false,
      "stateMutability": "view",
      "type": "function",
      "signature": "0xd2ffd6d3"
    },
    {
      "constant": true,
      "inputs": [
        {
          "name": "task_id",
          "type": "uint256"
        },
        {
          "name": "user",
          "type": "address"
        }
      ],
      "name": "isSubmittedOfTask",
      "outputs": [
        {
          "name": "",
          "type": "bool"
        }
      ],
      "payable": false,
      "stateMutability": "view",
      "type": "function",
      "signature": "0x8ead6243"
    },
    {
      "constant": true,
      "inputs": [
        {
          "name": "task_id",
          "type": "uint256"
        },
        {
          "name": "user",
          "type": "address"
        }
      ],
      "name": "isServiceProviderOfTask",
      "outputs": [
        {
          "name": "",
          "type": "bool"
        }
      ],
      "payable": false,
      "stateMutability": "view",
      "type": "function",
      "signature": "0x9c18520a"
    },
    {
      "constant": true,
      "inputs": [
        {
          "name": "task_id",
          "type": "uint256"
        },
        {
          "name": "user",
          "type": "address"
        }
      ],
      "name": "isClaimmedOfTask",
      "outputs": [
        {
          "name": "",
          "type": "bool"
        }
      ],
      "payable": false,
      "stateMutability": "view",
      "type": "function",
      "signature": "0x80b3c80f"
    },
    {
      "constant": true,
      "inputs": [
        {
          "name": "task_id",
          "type": "uint256"
        }
      ],
      "name": "getQualifiedNumberOfTask",
      "outputs": [
        {
          "name": "",
          "type": "uint256"
        }
      ],
      "payable": false,
      "stateMutability": "view",
      "type": "function",
      "signature": "0x9a892fd4"
    },
    {
      "constant": false,
      "inputs": [
        {
          "name": "data_fee",
          "type": "uint256"
        },
        {
          "name": "service_fee",
          "type": "uint256"
        },
        {
          "name": "service_provider",
          "type": "address"
        },
        {
          "name": "target",
          "type": "uint256"
        }
      ],
      "name": "solicit",
      "outputs": [],
      "payable": false,
      "stateMutability": "nonpayable",
      "type": "function",
      "signature": "0x1b2b80a4"
    },
    {
      "constant": false,
      "inputs": [
        {
          "name": "task_id",
          "type": "uint256"
        }
      ],
      "name": "register",
      "outputs": [],
      "payable": false,
      "stateMutability": "nonpayable",
      "type": "function",
      "signature": "0xf207564e"
    },
    {
      "constant": false,
      "inputs": [
        {
          "name": "task_id",
          "type": "uint256"
        },
        {
          "name": "data",
          "type": "bytes"
        },
        {
          "name": "proof",
          "type": "bytes"
        }
      ],
      "name": "submit",
      "outputs": [],
      "payable": false,
      "stateMutability": "nonpayable",
      "type": "function",
      "signature": "0x653a556d"
    },
    {
      "constant": false,
      "inputs": [
        {
          "name": "task_id",
          "type": "uint256"
        },
        {
          "name": "data",
          "type": "bytes"
        },
        {
          "name": "proof",
          "type": "bytes"
        }
      ],
      "name": "registerAndSubmit",
      "outputs": [],
      "payable": false,
      "stateMutability": "nonpayable",
      "type": "function",
      "signature": "0x8cc04bc3"
    },
    {
      "constant": false,
      "inputs": [
        {
          "name": "task_id",
          "type": "uint256"
        }
      ],
      "name": "stopRegisterAndSubmit",
      "outputs": [],
      "payable": false,
      "stateMutability": "nonpayable",
      "type": "function",
      "signature": "0x787804bf"
    },
    {
      "constant": false,
      "inputs": [
        {
          "name": "task_id",
          "type": "uint256"
        },
        {
          "name": "aggregation",
          "type": "bytes"
        },
        {
          "name": "qualifiedSets",
          "type": "bytes"
        },
        {
          "name": "share",
          "type": "bytes"
        },
        {
          "name": "attestatino",
          "type": "bytes"
        }
      ],
      "name": "aggregate",
      "outputs": [],
      "payable": false,
      "stateMutability": "nonpayable",
      "type": "function",
      "signature": "0xba85e1df"
    },
    {
      "constant": false,
      "inputs": [
        {
          "name": "task_id",
          "type": "uint256"
        }
      ],
      "name": "approve",
      "outputs": [],
      "payable": false,
      "stateMutability": "nonpayable",
      "type": "function",
      "signature": "0xb759f954"
    },
    {
      "constant": false,
      "inputs": [
        {
          "name": "task_id",
          "type": "uint256"
        }
      ],
      "name": "claim",
      "outputs": [],
      "payable": false,
      "stateMutability": "nonpayable",
      "type": "function",
      "signature": "0x379607f5"
    },
    {
      "constant": false,
      "inputs": [
        {
          "name": "task_id",
          "type": "uint256"
        }
      ],
      "name": "stopClaim",
      "outputs": [],
      "payable": false,
      "stateMutability": "nonpayable",
      "type": "function",
      "signature": "0x5525eb85"
    }
  ],
  "bytecode": "0x6080604052604051602080613f2a8339810180604052602081101561002357600080fd5b8101908080519060200190929190505050806000806101000a81548173ffffffffffffffffffffffffffffffffffffffff021916908373ffffffffffffffffffffffffffffffffffffffff16021790555033600160006101000a81548173ffffffffffffffffffffffffffffffffffffffff021916908373ffffffffffffffffffffffffffffffffffffffff16021790555050613e65806100c56000396000f3fe60806040526004361061015f576000357c0100000000000000000000000000000000000000000000000000000000900463ffffffff1680630a2f474a14610161578063155c4e9d146101d45780631b2b80a4146102925780631f87e627146103015780632a18d058146103bf578063379607f51461047357806338e33e43146104ae5780633d853a96146104ff57806351ddbbe01461058f5780635525eb85146105de5780635d3154e714610619578063653a556d14610668578063787804bf1461074d57806380b3c80f1461078857806387b9f7df146107fb5780638cc04bc3146108265780638ead62431461090b5780639a892fd41461097e5780639c18520a146109cd578063b759f95414610a40578063ba85e1df14610a7b578063bc52a28514610c0a578063d0f02e6414610c35578063d2ffd6d314610c84578063f207564e14610cf7578063f962a81314610d32578063fc0c546a14610d81575b005b34801561016d57600080fd5b506101ba6004803603604081101561018457600080fd5b8101908080359060200190929190803573ffffffffffffffffffffffffffffffffffffffff169060200190929190505050610dd8565b604051808215151515815260200191505060405180910390f35b3480156101e057600080fd5b50610217600480360360408110156101f757600080fd5b810190808035906020019092919080359060200190929190505050610fcf565b6040518080602001828103825283818151815260200191508051906020019080838360005b8381101561025757808201518184015260208101905061023c565b50505050905090810190601f1680156102845780820380516001836020036101000a031916815260200191505b509250505060405180910390f35b34801561029e57600080fd5b506102ff600480360360808110156102b557600080fd5b810190808035906020019092919080359060200190929190803573ffffffffffffffffffffffffffffffffffffffff169060200190929190803590602001909291905050506110a6565b005b34801561030d57600080fd5b506103446004803603604081101561032457600080fd5b8101908080359060200190929190803590602001909291905050506113c6565b6040518080602001828103825283818151815260200191508051906020019080838360005b83811015610384578082015181840152602081019050610369565b50505050905090810190601f1680156103b15780820380516001836020036101000a031916815260200191505b509250505060405180910390f35b3480156103cb57600080fd5b506103f8600480360360208110156103e257600080fd5b810190808035906020019092919050505061149d565b6040518080602001828103825283818151815260200191508051906020019080838360005b8381101561043857808201518184015260208101905061041d565b50505050905090810190601f1680156104655780820380516001836020036101000a031916815260200191505b509250505060405180910390f35b34801561047f57600080fd5b506104ac6004803603602081101561049657600080fd5b8101908080359060200190929190505050611558565b005b3480156104ba57600080fd5b506104fd600480360360208110156104d157600080fd5b81019080803573ffffffffffffffffffffffffffffffffffffffff169060200190929190505050611d5d565b005b34801561050b57600080fd5b506105386004803603602081101561052257600080fd5b8101908080359060200190929190505050611dfc565b604051808581526020018481526020018373ffffffffffffffffffffffffffffffffffffffff1673ffffffffffffffffffffffffffffffffffffffff16815260200182815260200194505050505060405180910390f35b34801561059b57600080fd5b506105c8600480360360208110156105b257600080fd5b8101908080359060200190929190505050611e99565b6040518082815260200191505060405180910390f35b3480156105ea57600080fd5b506106176004803603602081101561060157600080fd5b8101908080359060200190929190505050611eb9565b005b34801561062557600080fd5b506106526004803603602081101561063c57600080fd5b8101908080359060200190929190505050611edb565b6040518082815260200191505060405180910390f35b34801561067457600080fd5b5061074b6004803603606081101561068b57600080fd5b8101908080359060200190929190803590602001906401000000008111156106b257600080fd5b8201836020820111156106c457600080fd5b803590602001918460018302840111640100000000831117156106e657600080fd5b90919293919293908035906020019064010000000081111561070757600080fd5b82018360208201111561071957600080fd5b8035906020019184600183028401116401000000008311171561073b57600080fd5b9091929391929390505050611f13565b005b34801561075957600080fd5b506107866004803603602081101561077057600080fd5b8101908080359060200190929190505050612200565b005b34801561079457600080fd5b506107e1600480360360408110156107ab57600080fd5b8101908080359060200190929190803573ffffffffffffffffffffffffffffffffffffffff169060200190929190505050612369565b604051808215151515815260200191505060405180910390f35b34801561080757600080fd5b506108106124c5565b6040518082815260200191505060405180910390f35b34801561083257600080fd5b506109096004803603606081101561084957600080fd5b81019080803590602001909291908035906020019064010000000081111561087057600080fd5b82018360208201111561088257600080fd5b803590602001918460018302840111640100000000831117156108a457600080fd5b9091929391929390803590602001906401000000008111156108c557600080fd5b8201836020820111156108d757600080fd5b803590602001918460018302840111640100000000831117156108f957600080fd5b90919293919293905050506124cb565b005b34801561091757600080fd5b506109646004803603604081101561092e57600080fd5b8101908080359060200190929190803573ffffffffffffffffffffffffffffffffffffffff169060200190929190505050612c7f565b604051808215151515815260200191505060405180910390f35b34801561098a57600080fd5b506109b7600480360360208110156109a157600080fd5b8101908080359060200190929190505050612d69565b6040518082815260200191505060405180910390f35b3480156109d957600080fd5b50610a26600480360360408110156109f057600080fd5b8101908080359060200190929190803573ffffffffffffffffffffffffffffffffffffffff169060200190929190505050612d89565b604051808215151515815260200191505060405180910390f35b348015610a4c57600080fd5b50610a7960048036036020811015610a6357600080fd5b8101908080359060200190929190505050612e0d565b005b348015610a8757600080fd5b50610c08600480360360a0811015610a9e57600080fd5b810190808035906020019092919080359060200190640100000000811115610ac557600080fd5b820183602082011115610ad757600080fd5b80359060200191846001830284011164010000000083111715610af957600080fd5b909192939192939080359060200190640100000000811115610b1a57600080fd5b820183602082011115610b2c57600080fd5b80359060200191846001830284011164010000000083111715610b4e57600080fd5b909192939192939080359060200190640100000000811115610b6f57600080fd5b820183602082011115610b8157600080fd5b80359060200191846001830284011164010000000083111715610ba357600080fd5b909192939192939080359060200190640100000000811115610bc457600080fd5b820183602082011115610bd657600080fd5b80359060200191846001830284011164010000000083111715610bf857600080fd5b9091929391929390505050612ed6565b005b348015610c1657600080fd5b50610c1f613137565b6040518082815260200191505060405180910390f35b348015610c4157600080fd5b50610c6e60048036036020811015610c5857600080fd5b810190808035906020019092919050505061313c565b6040518082815260200191505060405180910390f35b348015610c9057600080fd5b50610cdd60048036036040811015610ca757600080fd5b8101908080359060200190929190803573ffffffffffffffffffffffffffffffffffffffff16906020019092919050505061315c565b604051808215151515815260200191505060405180910390f35b348015610d0357600080fd5b50610d3060048036036020811015610d1a57600080fd5b81019080803590602001909291905050506132a0565b005b348015610d3e57600080fd5b50610d6b60048036036020811015610d5557600080fd5b8101908080359060200190929190505050613877565b6040518082815260200191505060405180910390f35b348015610d8d57600080fd5b50610d96613897565b604051808273ffffffffffffffffffffffffffffffffffffffff1673ffffffffffffffffffffffffffffffffffffffff16815260200191505060405180910390f35b600080600384600181101515610dea57fe5b600f020160060160008473ffffffffffffffffffffffffffffffffffffffff1673ffffffffffffffffffffffffffffffffffffffff16815260200190815260200160002054905060008114151515610eaa576040517f08c379a00000000000000000000000000000000000000000000000000000000081526004018080602001828103825260178152602001807f646174612070726f7669646572206e6f7420657869737400000000000000000081525060200191505060405180910390fd5b60036005811115610eb757fe5b600385600181101515610ec657fe5b600f020160030160009054906101000a900460ff166005811115610ee657fe5b111515610f81576040517f08c379a00000000000000000000000000000000000000000000000000000000081526004018080602001828103825260218152602001807f6f6e6c792062652063616c6c6564206166746572206167677265676174696f6e81526020017f210000000000000000000000000000000000000000000000000000000000000081525060400191505060405180910390fd5b600384600181101515610f9057fe5b600f020160050160018203815481101515610fa757fe5b906000526020600020906003020160000160169054906101000a900460ff1691505092915050565b6060600383600181101515610fe057fe5b600f020160050182815481101515610ff457fe5b90600052602060002090600302016002018054600181600116156101000203166002900480601f0160208091040260200160405190810160405280929190818152602001828054600181600116156101000203166002900480156110995780601f1061106e57610100808354040283529160200191611099565b820191906000526020600020905b81548152906001019060200180831161107c57829003601f168201915b5050505050905092915050565b6000809054906101000a900473ffffffffffffffffffffffffffffffffffffffff1673ffffffffffffffffffffffffffffffffffffffff166323b872dd333084880287016040518463ffffffff167c0100000000000000000000000000000000000000000000000000000000028152600401808473ffffffffffffffffffffffffffffffffffffffff1673ffffffffffffffffffffffffffffffffffffffff1681526020018373ffffffffffffffffffffffffffffffffffffffff1673ffffffffffffffffffffffffffffffffffffffff1681526020018281526020019350505050602060405180830381600087803b1580156111a257600080fd5b505af11580156111b6573d6000803e3d6000fd5b505050506040513d60208110156111cc57600080fd5b81019080805190602001909291905050505060006111e86138bc565b9050600a81141515156111fa57600080fd5b6060604051908101604052808681526020018581526020018381525060038260018110151561122557fe5b600f02016000016000820151816000015560208201518160010155604082015181600201559050503360038260018110151561125d57fe5b600f020160030160016101000a81548173ffffffffffffffffffffffffffffffffffffffff021916908373ffffffffffffffffffffffffffffffffffffffff16021790555060408051908101604052808473ffffffffffffffffffffffffffffffffffffffff168152602001600015158152506003826001811015156112df57fe5b600f020160040160008201518160000160006101000a81548173ffffffffffffffffffffffffffffffffffffffff021916908373ffffffffffffffffffffffffffffffffffffffff16021790555060208201518160000160146101000a81548160ff021916908315150217905550905050600160038260018110151561136157fe5b600f0201600a0160006101000a81548160ff0219169083151502179055507fd2ec9a157bded18c3b7dac7f785dcdb2132de6cdf1f8ec1e3d071245c5bf524e816040518082815260200191505060405180910390a16113bf8161391a565b5050505050565b60606003836001811015156113d757fe5b600f0201600501828154811015156113eb57fe5b90600052602060002090600302016001018054600181600116156101000203166002900480601f0160208091040260200160405190810160405280929190818152602001828054600181600116156101000203166002900480156114905780601f1061146557610100808354040283529160200191611490565b820191906000526020600020905b81548152906001019060200180831161147357829003601f168201915b5050505050905092915050565b60606003826001811015156114ae57fe5b600f02016007016000018054600181600116156101000203166002900480601f01602080910402602001604051908101604052809291908181526020018280546001816001161561010002031660029004801561154c5780601f106115215761010080835404028352916020019161154c565b820191906000526020600020905b81548152906001019060200180831161152f57829003601f168201915b50505050509050919050565b611563816005613ab8565b151561156e57600080fd5b6000339050600060038360018110151561158457fe5b600f020160060160008373ffffffffffffffffffffffffffffffffffffffff1673ffffffffffffffffffffffffffffffffffffffff16815260200190815260200160002054905060006003846001811015156115dc57fe5b600f0201600b01548211806115f15750600082145b158015611640575060038460018110151561160857fe5b600f02016005016001830381548110151561161f57fe5b906000526020600020906003020160000160179054906101000a900460ff16155b801561168d575060038460018110151561165657fe5b600f02016005016001830381548110151561166d57fe5b906000526020600020906003020160000160169054906101000a900460ff165b905060006003856001811015156116a057fe5b600f020160040160000160009054906101000a900473ffffffffffffffffffffffffffffffffffffffff1673ffffffffffffffffffffffffffffffffffffffff168473ffffffffffffffffffffffffffffffffffffffff16148015611729575060038560018110151561170f57fe5b600f020160040160000160149054906101000a900460ff16155b905081806117345750805b151561173f57600080fd5b80156118b6576000809054906101000a900473ffffffffffffffffffffffffffffffffffffffff1673ffffffffffffffffffffffffffffffffffffffff1663a9059cbb8560038860018110151561179257fe5b600f0201600001600101546040518363ffffffff167c0100000000000000000000000000000000000000000000000000000000028152600401808373ffffffffffffffffffffffffffffffffffffffff1673ffffffffffffffffffffffffffffffffffffffff16815260200182815260200192505050602060405180830381600087803b15801561182257600080fd5b505af1158015611836573d6000803e3d6000fd5b505050506040513d602081101561184c57600080fd5b810190808051906020019092919050505050600160038660018110151561186f57fe5b600f020160040160000160146101000a81548160ff02191690831515021790555060016003866001811015156118a157fe5b600f0201600e01600082825401925050819055505b8115611a4b576000809054906101000a900473ffffffffffffffffffffffffffffffffffffffff1673ffffffffffffffffffffffffffffffffffffffff1663a9059cbb8560038860018110151561190957fe5b600f0201600001600001546040518363ffffffff167c0100000000000000000000000000000000000000000000000000000000028152600401808373ffffffffffffffffffffffffffffffffffffffff1673ffffffffffffffffffffffffffffffffffffffff16815260200182815260200192505050602060405180830381600087803b15801561199957600080fd5b505af11580156119ad573d6000803e3d6000fd5b505050506040513d60208110156119c357600080fd5b81019080805190602001909291905050505060016003866001811015156119e657fe5b600f0201600501600185038154811015156119fd57fe5b906000526020600020906003020160000160176101000a81548160ff0219169083151502179055506001600386600181101515611a3657fe5b600f0201600e01600082825401925050819055505b7f022e3d29644ead4083349ca84d24bcac368b2461819b70f5921fea15de4dec4d85600387600181101515611a7c57fe5b600f0201600e0154604051808381526020018281526020019250505060405180910390a16001600386600181101515611ab157fe5b600f0201600d015401600386600181101515611ac957fe5b600f0201600e01541415611d5657600385600181101515611ae657fe5b600f020160000160020154600386600181101515611b0057fe5b600f0201600d0154141515611c98576000600386600181101515611b2057fe5b600f020160000160000154600387600181101515611b3a57fe5b600f0201600d0154600388600181101515611b5157fe5b600f020160000160020154030290506000809054906101000a900473ffffffffffffffffffffffffffffffffffffffff1673ffffffffffffffffffffffffffffffffffffffff1663a9059cbb600388600181101515611bac57fe5b600f020160030160019054906101000a900473ffffffffffffffffffffffffffffffffffffffff16836040518363ffffffff167c0100000000000000000000000000000000000000000000000000000000028152600401808373ffffffffffffffffffffffffffffffffffffffff1673ffffffffffffffffffffffffffffffffffffffff16815260200182815260200192505050602060405180830381600087803b158015611c5a57600080fd5b505af1158015611c6e573d6000803e3d6000fd5b505050506040513d6020811015611c8457600080fd5b810190808051906020019092919050505050505b6000600386600181101515611ca957fe5b600f0201600a0160006101000a81548160ff0219169083151502179055506000600386600181101515611cd857fe5b600f0201600b01819055506000600386600181101515611cf457fe5b600f0201600c01819055506000600386600181101515611d1057fe5b600f0201600e0181905550600385600181101515611d2a57fe5b600f0201600001600080820160009055600182016000905560028201600090555050611d558561391a565b5b5050505050565b600160009054906101000a900473ffffffffffffffffffffffffffffffffffffffff1673ffffffffffffffffffffffffffffffffffffffff163373ffffffffffffffffffffffffffffffffffffffff16141515611db957600080fd5b806000806101000a81548173ffffffffffffffffffffffffffffffffffffffff021916908373ffffffffffffffffffffffffffffffffffffffff16021790555050565b600080600080600385600181101515611e1157fe5b600f020160000160000154600386600181101515611e2b57fe5b600f020160000160010154600387600181101515611e4557fe5b600f020160040160000160009054906101000a900473ffffffffffffffffffffffffffffffffffffffff16600388600181101515611e7f57fe5b600f02016000016002015493509350935093509193509193565b6000600382600181101515611eaa57fe5b600f0201600c01549050919050565b611ec4816005613ab8565b1515611ecf57600080fd5b611ed88161391a565b50565b6000600382600181101515611eec57fe5b600f020160030160009054906101000a900460ff166005811115611f0c57fe5b9050919050565b611f1e856002613ab8565b1515611f2957600080fd5b60003390506000600387600181101515611f3f57fe5b600f020160060160008373ffffffffffffffffffffffffffffffffffffffff1673ffffffffffffffffffffffffffffffffffffffff168152602001908152602001600020549050600387600181101515611f9557fe5b600f0201600b0154811180611faa5750600081145b151515611fb657600080fd5b60011515600388600181101515611fc957fe5b600f020160050160018303815481101515611fe057fe5b906000526020600020906003020160000160149054906101000a900460ff16151514801561205657506000151560038860018110151561201c57fe5b600f02016005016001830381548110151561203357fe5b906000526020600020906003020160000160159054906101000a900460ff161515145b151561206157600080fd5b600160038860018110151561207257fe5b600f02016005016001830381548110151561208957fe5b906000526020600020906003020160000160156101000a81548160ff02191690831515021790555085856003896001811015156120c257fe5b600f0201600501600184038154811015156120d957fe5b906000526020600020906003020160020191906120f7929190613d14565b50838360038960018110151561210957fe5b600f02016005016001840381548110151561212057fe5b9060005260206000209060030201600101919061213e929190613d14565b50600160038860018110151561215057fe5b600f0201600c01600082825401925050819055507f44b5fec903dddbb301d98f93c3401460e2dafd2842a834056f5eda45306638098760038960018110151561219557fe5b600f0201600c0154604051808381526020018281526020019250505060405180910390a16003876001811015156121c857fe5b600f0201600b01546003886001811015156121df57fe5b600f0201600c015414156121f7576121f68761391a565b5b50505050505050565b61220b816001613ab8565b151561221657600080fd5b3373ffffffffffffffffffffffffffffffffffffffff1660038260018110151561223c57fe5b600f020160030160019054906101000a900473ffffffffffffffffffffffffffffffffffffffff1673ffffffffffffffffffffffffffffffffffffffff1614151561228657600080fd5b600060038260018110151561229757fe5b600f020160030160009054906101000a900460ff169050600380836001811015156122be57fe5b600f020160030160006101000a81548160ff021916908360058111156122e057fe5b02179055507ff8efcd9fd5385496683a4740418ff86e22055114151388eef0439e0d7e6147be8260038460018110151561231657fe5b600f020160030160009054906101000a900460ff16600581111561233657fe5b83600581111561234257fe5b60405180848152602001838152602001828152602001935050505060405180910390a15050565b6000612376836004613b0f565b151561238157600080fd5b61238b8383612d89565b15801561239f575061239d8383612c7f565b155b80156123b257506123b08383610dd8565b155b156123c057600090506124bf565b6123ca8383612d89565b1561240d576003836001811015156123de57fe5b600f020160040160000160149054906101000a900460ff161561240457600190506124bf565b600090506124bf565b600060038460018110151561241e57fe5b600f020160060160008473ffffffffffffffffffffffffffffffffffffffff1673ffffffffffffffffffffffffffffffffffffffff16815260200190815260200160002054905060038460018110151561247457fe5b600f02016005016001820381548110151561248b57fe5b906000526020600020906003020160000160179054906101000a900460ff16156124b95760019150506124bf565b60009150505b92915050565b60025481565b6124d6856001613ab8565b15156124e157600080fd5b600033905060006003876001811015156124f757fe5b600f020160060160008373ffffffffffffffffffffffffffffffffffffffff1673ffffffffffffffffffffffffffffffffffffffff168152602001908152602001600020549050600060038860018110151561254f57fe5b600f0201600b01549050600082148061256757508082115b806125f557508273ffffffffffffffffffffffffffffffffffffffff1660038960018110151561259357fe5b600f0201600501600184038154811015156125aa57fe5b906000526020600020906003020160000160009054906101000a900473ffffffffffffffffffffffffffffffffffffffff1673ffffffffffffffffffffffffffffffffffffffff1614155b151561260057600080fd5b8060038960018110151561261057fe5b600f020160050180549050141561282b5760038860018110151561263057fe5b600f020160050160e0604051908101604052808573ffffffffffffffffffffffffffffffffffffffff1681526020016001151581526020016000151581526020016000151581526020016000151581526020016040805190810160405280600381526020017f307831000000000000000000000000000000000000000000000000000000000081525081526020016040805190810160405280600381526020017f30783100000000000000000000000000000000000000000000000000000000008152508152509080600181540180825580915050906001820390600052602060002090600302016000909192909190915060008201518160000160006101000a81548173ffffffffffffffffffffffffffffffffffffffff021916908373ffffffffffffffffffffffffffffffffffffffff16021790555060208201518160000160146101000a81548160ff02191690831515021790555060408201518160000160156101000a81548160ff02191690831515021790555060608201518160000160166101000a81548160ff02191690831515021790555060808201518160000160176101000a81548160ff02191690831515021790555060a0820151816001019080519060200190612805929190613d94565b5060c0820151816002019080519060200190612822929190613d94565b50505050612986565b8260038960018110151561283b57fe5b600f02016005018281548110151561284f57fe5b906000526020600020906003020160000160006101000a81548173ffffffffffffffffffffffffffffffffffffffff021916908373ffffffffffffffffffffffffffffffffffffffff16021790555060016003896001811015156128af57fe5b600f0201600501828154811015156128c357fe5b906000526020600020906003020160000160146101000a81548160ff02191690831515021790555060016003896001811015156128fc57fe5b600f02016005018281548110151561291057fe5b906000526020600020906003020160000160156101000a81548160ff021916908315150217905550600060038960018110151561294957fe5b600f02016005018281548110151561295d57fe5b906000526020600020906003020160000160176101000a81548160ff0219169083151502179055505b6001810160038960018110151561299957fe5b600f020160060160008573ffffffffffffffffffffffffffffffffffffffff1673ffffffffffffffffffffffffffffffffffffffff16815260200190815260200160002081905550868660038a6001811015156129f257fe5b600f020160050183815481101515612a0657fe5b90600052602060002090600302016002019190612a24929190613d14565b50848460038a600181101515612a3657fe5b600f020160050183815481101515612a4a57fe5b90600052602060002090600302016001019190612a68929190613d14565b506001600389600181101515612a7a57fe5b600f0201600b01600082825401925050819055506001600389600181101515612a9f57fe5b600f0201600c01600082825401925050819055507fe23550ce55546f73f971a932ee4b14cd8070fc95c7da57ac7e4337476b5604d18860038a600181101515612ae457fe5b600f0201600b0154604051808381526020018281526020019250505060405180910390a17f44b5fec903dddbb301d98f93c3401460e2dafd2842a834056f5eda45306638098860038a600181101515612b3957fe5b600f0201600c0154604051808381526020018281526020019250505060405180910390a1600388600181101515612b6c57fe5b600f020160000160020154600389600181101515612b8657fe5b600f0201600b01541415612c75576000600389600181101515612ba557fe5b600f020160030160009054906101000a900460ff1690506003808a600181101515612bcc57fe5b600f020160030160006101000a81548160ff02191690836005811115612bee57fe5b02179055507ff8efcd9fd5385496683a4740418ff86e22055114151388eef0439e0d7e6147be8960038b600181101515612c2457fe5b600f020160030160009054906101000a900460ff166005811115612c4457fe5b836005811115612c5057fe5b60405180848152602001838152602001828152602001935050505060405180910390a1505b5050505050505050565b6000612c8c836001613b0f565b1515612c9757600080fd5b612ca1838361315c565b1515612cb05760009050612d63565b6000600384600181101515612cc157fe5b600f020160060160008473ffffffffffffffffffffffffffffffffffffffff1673ffffffffffffffffffffffffffffffffffffffff168152602001908152602001600020549050600384600181101515612d1757fe5b600f020160050160018203815481101515612d2e57fe5b906000526020600020906003020160000160159054906101000a900460ff161515612d5d576000915050612d63565b60019150505b92915050565b6000600382600181101515612d7a57fe5b600f0201600d01549050919050565b6000600383600181101515612d9a57fe5b600f020160040160000160009054906101000a900473ffffffffffffffffffffffffffffffffffffffff1673ffffffffffffffffffffffffffffffffffffffff168273ffffffffffffffffffffffffffffffffffffffff16141515612e025760009050612e07565b600190505b92915050565b612e18816004613ab8565b1515612e2357600080fd5b3373ffffffffffffffffffffffffffffffffffffffff16600382600181101515612e4957fe5b600f020160030160019054906101000a900473ffffffffffffffffffffffffffffffffffffffff1673ffffffffffffffffffffffffffffffffffffffff16141515612e9357600080fd5b7f77b92c0722e5bbe8d1413b7fbec6093bc4dc966a65832498dc8c2c67d9a937cc816040518082815260200191505060405180910390a1612ed38161391a565b50565b612ee1896003613ab8565b1515612eec57600080fd5b3373ffffffffffffffffffffffffffffffffffffffff1660038a600181101515612f1257fe5b600f020160040160000160009054906101000a900473ffffffffffffffffffffffffffffffffffffffff1673ffffffffffffffffffffffffffffffffffffffff16141515612f5f57600080fd5b600389600181101515612f6e57fe5b600f0201600b015486869050141515612fef576040517f08c379a000000000000000000000000000000000000000000000000000000000815260040180806020018281038252601a8152602001807f77726f6e67207175616c696669656453657473206c656e67746800000000000081525060200191505060405180910390fd5b878760038b60018110151561300057fe5b600f02016007016000019190613017929190613d14565b50838360038b60018110151561302957fe5b600f02016007016001019190613040929190613d14565b50818160038b60018110151561305257fe5b600f02016007016002019190613069929190613d14565b506130b88987878080601f016020809104026020016040519081016040528093929190818152602001838380828437600081840152601f19601f82011690508083019250505050505050613b66565b7fc031c425cd768fbe419003ae191109dad23a5881a955690b11ceed516b27c26a89898960405180848152602001806020018281038252848482818152602001925080828437600081840152601f19601f82011690508083019250505094505050505060405180910390a161312c8961391a565b505050505050505050565b600181565b600060038260018110151561314d57fe5b600f0201600b01549050919050565b6000613169836000613b0f565b151561317457600080fd5b600060038460018110151561318557fe5b600f020160060160008473ffffffffffffffffffffffffffffffffffffffff1673ffffffffffffffffffffffffffffffffffffffff16815260200190815260200160002054905060006003856001811015156131dd57fe5b600f0201600b0154905060008214806131f557508082115b8061328357508373ffffffffffffffffffffffffffffffffffffffff1660038660018110151561322157fe5b600f02016005016001840381548110151561323857fe5b906000526020600020906003020160000160009054906101000a900473ffffffffffffffffffffffffffffffffffffffff1673ffffffffffffffffffffffffffffffffffffffff1614155b156132935760009250505061329a565b6001925050505b92915050565b6132ab816001613ab8565b15156132b657600080fd5b600033905060006003836001811015156132cc57fe5b600f020160060160008373ffffffffffffffffffffffffffffffffffffffff1673ffffffffffffffffffffffffffffffffffffffff168152602001908152602001600020549050600060038460018110151561332457fe5b600f0201600b01549050600082148061333c57508082115b806133ca57508273ffffffffffffffffffffffffffffffffffffffff1660038560018110151561336857fe5b600f02016005016001840381548110151561337f57fe5b906000526020600020906003020160000160009054906101000a900473ffffffffffffffffffffffffffffffffffffffff1673ffffffffffffffffffffffffffffffffffffffff1614155b15156133d557600080fd5b806003856001811015156133e557fe5b600f02016005018054905014156136005760038460018110151561340557fe5b600f020160050160e0604051908101604052808573ffffffffffffffffffffffffffffffffffffffff1681526020016001151581526020016000151581526020016000151581526020016000151581526020016040805190810160405280600381526020017f307831000000000000000000000000000000000000000000000000000000000081525081526020016040805190810160405280600381526020017f30783100000000000000000000000000000000000000000000000000000000008152508152509080600181540180825580915050906001820390600052602060002090600302016000909192909190915060008201518160000160006101000a81548173ffffffffffffffffffffffffffffffffffffffff021916908373ffffffffffffffffffffffffffffffffffffffff16021790555060208201518160000160146101000a81548160ff02191690831515021790555060408201518160000160156101000a81548160ff02191690831515021790555060608201518160000160166101000a81548160ff02191690831515021790555060808201518160000160176101000a81548160ff02191690831515021790555060a08201518160010190805190602001906135da929190613d94565b5060c08201518160020190805190602001906135f7929190613d94565b5050505061375b565b8260038560018110151561361057fe5b600f02016005018281548110151561362457fe5b906000526020600020906003020160000160006101000a81548173ffffffffffffffffffffffffffffffffffffffff021916908373ffffffffffffffffffffffffffffffffffffffff160217905550600160038560018110151561368457fe5b600f02016005018281548110151561369857fe5b906000526020600020906003020160000160146101000a81548160ff02191690831515021790555060006003856001811015156136d157fe5b600f0201600501828154811015156136e557fe5b906000526020600020906003020160000160156101000a81548160ff021916908315150217905550600060038560018110151561371e57fe5b600f02016005018281548110151561373257fe5b906000526020600020906003020160000160176101000a81548160ff0219169083151502179055505b6001810160038560018110151561376e57fe5b600f020160060160008573ffffffffffffffffffffffffffffffffffffffff1673ffffffffffffffffffffffffffffffffffffffff1681526020019081526020016000208190555060016003856001811015156137c757fe5b600f0201600b01600082825401925050819055507fe23550ce55546f73f971a932ee4b14cd8070fc95c7da57ac7e4337476b5604d18460038660018110151561380c57fe5b600f0201600b0154604051808381526020018281526020019250505060405180910390a160038460018110151561383f57fe5b600f02016000016002015460038560018110151561385957fe5b600f0201600b01541415613871576138708461391a565b5b50505050565b600060038260018110151561388857fe5b600f0201600e01549050919050565b6000809054906101000a900473ffffffffffffffffffffffffffffffffffffffff1681565b600080600090505b600181101561391157600015156003826001811015156138e057fe5b600f0201600a0160009054906101000a900460ff16151514156139065780915050613917565b8060010190506138c4565b50600a90505b90565b600060038260018110151561392b57fe5b600f020160030160009054906101000a900460ff16905060058081111561394e57fe5b60038360018110151561395d57fe5b600f020160030160009054906101000a900460ff16600581111561397d57fe5b14156139c057600060038360018110151561399457fe5b600f020160030160006101000a81548160ff021916908360058111156139b657fe5b0217905550613a34565b60016003836001811015156139d157fe5b600f020160030160009054906101000a900460ff1660058111156139f157fe5b0160058111156139fd57fe5b600383600181101515613a0c57fe5b600f020160030160006101000a81548160ff02191690836005811115613a2e57fe5b02179055505b7ff8efcd9fd5385496683a4740418ff86e22055114151388eef0439e0d7e6147be82600384600181101515613a6557fe5b600f020160030160009054906101000a900460ff166005811115613a8557fe5b836005811115613a9157fe5b60405180848152602001838152602001828152602001935050505060405180910390a15050565b6000816005811115613ac657fe5b600384600181101515613ad557fe5b600f020160030160009054906101000a900460ff166005811115613af557fe5b1415613b045760019050613b09565b600090505b92915050565b6000816005811115613b1d57fe5b600384600181101515613b2c57fe5b600f020160030160009054906101000a900460ff166005811115613b4c57fe5b1115613b5b5760019050613b60565b600090505b92915050565b600080905060008090505b8251811015613cf35760007f0100000000000000000000000000000000000000000000000000000000000000027effffffffffffffffffffffffffffffffffffffffffffffffffffffffffffff19168382815181101515613bce57fe5b9060200101517f010000000000000000000000000000000000000000000000000000000000000090047f0100000000000000000000000000000000000000000000000000000000000000027effffffffffffffffffffffffffffffffffffffffffffffffffffffffffffff1916141515613c9a576001820191506001600385600181101515613c5957fe5b600f020160050182815481101515613c6d57fe5b906000526020600020906003020160000160166101000a81548160ff021916908315150217905550613ce8565b6000600385600181101515613cab57fe5b600f020160050182815481101515613cbf57fe5b906000526020600020906003020160000160166101000a81548160ff0219169083151502179055505b806001019050613b71565b5080600384600181101515613d0457fe5b600f0201600d0181905550505050565b828054600181600116156101000203166002900490600052602060002090601f016020900481019282601f10613d5557803560ff1916838001178555613d83565b82800160010185558215613d83579182015b82811115613d82578235825591602001919060010190613d67565b5b509050613d909190613e14565b5090565b828054600181600116156101000203166002900490600052602060002090601f016020900481019282601f10613dd557805160ff1916838001178555613e03565b82800160010185558215613e03579182015b82811115613e02578251825591602001919060010190613de7565b5b509050613e109190613e14565b5090565b613e3691905b80821115613e32576000816000905550600101613e1a565b5090565b9056fea165627a7a723058206b002076dc9e8c55567685fac62a2f1ca17155a6f7a078a8124810910bcf047f0029",
  "source": "pragma solidity ^0.5.0;\n\nimport \"./erc20.sol\";\n\ncontract Crowdsourcing {\n\n\tuint constant public MAX_TASK = 1;\n\tuint constant internal TASK_FULL = 10;\n\t\n\tIERC20 public token;\n\taddress private admin;\n\n\tenum Stages {\n\t\tsolicit,\n\t\tregister,\n\t\tsubmit,\n\t\taggregate,\n\t\tapprove,\n\t\tclaim\n\t}\n\n\tstruct Request {\n\t\tuint data_fee;\n\t\tuint service_fee;\n\t\tuint target;\n\t}\n\n\n    struct DataProvider {\n    \taddress account;\n    \tbool registered;\n    \tbool submited;\n    \tbool qualified;\n    \tbool claimed;\n    \tbytes submit_proof;\n    \tbytes submit_data;\n    }\n\n    struct ServiceProvider {\n    \taddress account;\n    \tbool claimed;\n    }\n\n    struct Aggregation {\n    \tbytes aggregation;\n    \tbytes share;\n    \tbytes attestatino;\n    }\n\n\tstruct Task {\n\t\tRequest  request;\n\t\tStages  stage;\n\t\taddress  owner;\n\t\tServiceProvider service_provider;\n\t\tDataProvider [] data_provider;\n\t\tmapping(address => uint) data_provider_id;\n\t\tAggregation aggregate;\n\t\tbool busy;\n\t\tuint register_count;\n\t\tuint submit_count;\n\t\tuint qualified_count;\n\t\tuint claim_count;\n\t}\t\n    \n    uint public lastest_task;\n    //Stages public lastest_stage = Stages.solicit;\n\tTask [MAX_TASK] internal task;\n\n    \n\t// event Solicit(uint data_fee, uint service_fee, address owner, address service_provider, uint target, uint request_id, bytes32 task_id);\n\t// event Register(address data_provider, bytes32 task_id);\n\t// event RegisterCollected(bytes32 task_id);\n\t// event Submit(address data_provider,  bytes32 task_id);\n\t// event SubmitCollected(bytes32 task_id);\n\t// event Aggregate(bytes32 task_id);\n\t// event Approve(bytes32 task_id);\n\t// event Claim(address user, uint amount ,bytes32 task_id);\n\t// event ReceiveFund(uint amount, address supporter);\n\tevent StageTransfer(uint  taskId, uint  newStage, uint  oldStage);\n\tevent Solicit(uint  taskId);\n\tevent Register(uint  taskId,uint registerNumber);\n\tevent Submit(uint  taskId, uint submitNumber);\n\tevent Aggregate(uint  taskId,bytes aggregateResult);\n\tevent Approve(uint  taskId);\n\tevent Claim(uint taskId,uint claimNumber);\n\n\tconstructor (address erc20) public payable {\n\t\ttoken = IERC20(erc20);\n\t\tadmin = msg.sender;\n\t}\n\t\n\tfunction changeERC20Contract(address erc20) external {\n\t    require(msg.sender==admin);\n\t    token = IERC20(erc20);\n\t}\n\t\n\tfunction () external payable {\n\t    //emit ReceiveFund(msg.value, msg.sender);\n\t}\n\t\n\tfunction getStageOfTask(uint task_id) external view returns(uint) {\n\t    return uint(task[task_id].stage);\n\t}\n\t\n\tfunction getSolicitInfoOfTask(uint task_id) external view returns(uint,uint,address,uint) {\n\t    return (task[task_id].request.data_fee,task[task_id].request.service_fee,task[task_id].service_provider.account,task[task_id].request.target);\n\t}\n\t\n\tfunction getSubmitDataOfTask(uint task_id, uint index) external view returns (bytes memory) {\n\t    return task[task_id].data_provider[index].submit_data;\n\t}\n\t\n\tfunction getSubmitCountOfTask(uint task_id) external view returns (uint) {\n\t    return task[task_id].submit_count;\n\t}\n\t\n\tfunction getRegisterNumberOfTask(uint task_id) external view returns (uint) {\n\t    return task[task_id].register_count;\n\t}\n\t\n\tfunction getClaimNumberOfTask(uint task_id) external view returns (uint) {\n\t    return task[task_id].claim_count;\n\t}\n\t\n\tfunction getAggregationResultOfTask(uint task_id) external view returns (bytes memory) {\n\t    return task[task_id].aggregate.aggregation;\n\t}\n\t\n\n    function getSubmitProofOfTask(uint task_id, uint index) external view returns (bytes memory) {\n        return task[task_id].data_provider[index].submit_proof;\n    }\n\t\n\n\tfunction isQualifiedProviderForTask(uint task_id, address user) public view returns (bool) {\n\t    uint id = task[task_id].data_provider_id[user];\n\t    require(id!=0,\"data provider not exist\");\n\t    require(task[task_id].stage> Stages.aggregate,\"only be called after aggregation!\");\n\t    return task[task_id].data_provider[id-1].qualified;\n\t}\n\t\n\tfunction isRegisteredOfTask(uint task_id, address user) public view returns (bool) {\n\t    require(afterStage(task_id,Stages.solicit));\n\t\tuint id = task[task_id].data_provider_id[user];\n\t\tuint lastest_id = task[task_id].register_count;\n\t\tif(id == 0 || id > lastest_id || task[task_id].data_provider[id-1].account != user) {\n\t\t    return false;\n\t\t}\n\t\treturn true;\n\t}\n\t\n\tfunction isSubmittedOfTask(uint task_id,address user) public view returns (bool) {\n\t    require(afterStage(task_id,Stages.register));\n\t    \n\t    if(!isRegisteredOfTask(task_id,user)) return false;\n\t    uint id = task[task_id].data_provider_id[user];\n\t\tif (!task[task_id].data_provider[id-1].submited) return false;\n\t\t\n\t\treturn true;\n\t}\n\t\n\tfunction isServiceProviderOfTask(uint task_id, address user) public view returns (bool) {\n\t    if (user!=task[task_id].service_provider.account) return false;\n\t    return true;\n\t}\n\t\n\tfunction isClaimmedOfTask(uint task_id,address user) external view returns (bool) {\n\t    require(afterStage(task_id,Stages.approve));\n\t    if( !isServiceProviderOfTask(task_id,user) && !isSubmittedOfTask(task_id,user) \n\t    && !isQualifiedProviderForTask(task_id,user)) return false;\n\t   \n\t    //service provider\n        if(isServiceProviderOfTask(task_id,user)) {\n            if(task[task_id].service_provider.claimed) return true;\n            else return false;\n        } \n        \n        // data_provider\n        uint id = task[task_id].data_provider_id[user];\n        if(task[task_id].data_provider[id-1].claimed) return true;\n\t    return false;\n\t}\n\t\n\n\tfunction getQualifiedNumberOfTask(uint task_id) external view returns (uint) {\n\t    return task[task_id].qualified_count;\n\t}\n\t\n\tfunction setQualifiedDataProvider(uint task_id,bytes memory qualifiedSets) internal  {\n\t    uint qualified_count = 0;\n\t    for(uint i=0; i< qualifiedSets.length; ++i) {\n\t        if(qualifiedSets[i]!=bytes1(0)) {\n\t            qualified_count +=1;\n\t            task[task_id].data_provider[i].qualified = true;\n\t        } else {\n\t            task[task_id].data_provider[i].qualified = false;\n\t        }\n\t    }\n\t    task[task_id].qualified_count = qualified_count;\n\t}\n\n\tfunction getEmptyTaskSlot () internal view returns (uint) {\n\t\tfor(uint i = 0; i< MAX_TASK ; ++i) {\n\t\t\tif (task[i].busy == false){\n\t\t\t\treturn i;\n\t\t\t}\n\t\t}\n\t\t//not found\n\t\treturn TASK_FULL;\n\t}\n\n\tfunction atStage (uint task_id, Stages _stage) internal view returns (bool) {\n\t\tif(task[task_id].stage == _stage){\n\t\t\treturn true;\n\t\t} else {\n\t\t\treturn false;\n\t\t}\n\t}\n\t\n\tfunction afterStage(uint task_id,Stages _stage) internal view returns (bool) {\n\t\tif(task[task_id].stage > _stage){\n\t\t\treturn true;\n\t\t} else {\n\t\t\treturn false;\n\t\t}\n\t}\n\n\tfunction nextStage(uint task_id) internal {\n\t    Stages oldStage = task[task_id].stage;\n\t\tif (task[task_id].stage == Stages.claim) {\n\t\t\ttask[task_id].stage = Stages.solicit;\n\t\t} else {\n\t    \ttask[task_id].stage = Stages(uint(task[task_id].stage) + 1);\n\t\t}\n\t\temit StageTransfer(task_id, uint(task[task_id].stage), uint(oldStage));\n\t\t//lastest_stage = task[task_id].stage;\n\t}\n\n\tfunction solicit(uint data_fee, uint service_fee, address service_provider, uint target) external {\n\t\t//require(address(this).balance > data_fee + service_fee);\n\t\ttoken.transferFrom(msg.sender,address(this),service_fee+data_fee*target);  // transfer token to contract \n\t\tuint task_id = getEmptyTaskSlot();\n\t\t//lastest_task = task_id;\n\t\trequire(task_id != TASK_FULL);\n\t\ttask[task_id].request = Request(data_fee, service_fee, target);\n\t\ttask[task_id].owner = msg.sender;\n\t\ttask[task_id].service_provider = ServiceProvider(service_provider, false);\n\t\ttask[task_id].busy = true;\n\t\temit Solicit(task_id);\n\t\tnextStage(task_id);\n\t\t//emit Solicit(data_fee, service_fee, msg.sender, service_provider, target, request_id, task_id);\n\t}\n    \n\tfunction register(uint task_id) external {\n\t\trequire(atStage(task_id, Stages.register));\n\t\taddress provider = msg.sender;\n\t\tuint id = task[task_id].data_provider_id[provider];\n\t\tuint lastest_id = task[task_id].register_count;\n\t\trequire(id == 0 || id > lastest_id || task[task_id].data_provider[id-1].account != provider);\n\t\tif (task[task_id].data_provider.length == lastest_id) {\n\t\t    task[task_id].data_provider.push(DataProvider(provider,true,false,false,false,\"0x1\",\"0x1\"));\n\t\t} else{\n\t\t    task[task_id].data_provider[lastest_id].account = provider;\n\t\t    task[task_id].data_provider[lastest_id].registered = true;\n\t\t    task[task_id].data_provider[lastest_id].submited = false;\n\t\t    task[task_id].data_provider[lastest_id].claimed = false;\n\t\t}\n\t\ttask[task_id].data_provider_id[provider] = lastest_id + 1;\n\t\ttask[task_id].register_count += 1;\n\t\t//emit Register(data_provider, task_id);\n\t\temit Register(task_id,task[task_id].register_count);\n\t\tif(task[task_id].register_count == task[task_id].request.target) {\n\t\t\tnextStage(task_id);\n\t\t\t//emit RegisterCollected(task_id);\n\t\t}\n\t}\n    \n\tfunction submit(uint task_id, bytes calldata data,bytes calldata proof) external {\n\t\trequire(atStage(task_id, Stages.submit));\n\t\taddress provider = msg.sender;\n\t\tuint id = task[task_id].data_provider_id[provider];\n\t\trequire (!(id> task[task_id].register_count || id ==0));\n\t\trequire (task[task_id].data_provider[id-1].registered == true && task[task_id].data_provider[id-1].submited == false);\n\t\t\n\t\ttask[task_id].data_provider[id-1].submited = true;\n\t\ttask[task_id].data_provider[id-1].submit_data = data;\n\t\ttask[task_id].data_provider[id-1].submit_proof = proof;\n\t\ttask[task_id].submit_count += 1;\n\t\t//emit Submit(data_provider, task_id);\n\t\temit Submit(task_id, task[task_id].submit_count);\n\t\tif(task[task_id].submit_count == task[task_id].register_count){\n\t\t\tnextStage(task_id);\n\t\t\t//emit SubmitCollected(task_id);\n\t\t}\n\t}\n\t\n\t// only for demo\n\tfunction registerAndSubmit(uint task_id, bytes calldata data,bytes calldata proof) external {\n\t    require(atStage(task_id, Stages.register));\n\t\taddress provider = msg.sender;\n\t\tuint id = task[task_id].data_provider_id[provider];\n\t\tuint lastest_id = task[task_id].register_count;\n\t\trequire(id == 0 || id > lastest_id || task[task_id].data_provider[id-1].account != provider);\n\t\tif (task[task_id].data_provider.length == lastest_id) {\n\t\t    task[task_id].data_provider.push(DataProvider(provider,true,false,false,false,\"0x1\",\"0x1\"));\n\t\t} else{\n\t\t    task[task_id].data_provider[lastest_id].account = provider;\n\t\t    task[task_id].data_provider[lastest_id].registered = true;\n\t\t    task[task_id].data_provider[lastest_id].submited = true;\n\t\t    task[task_id].data_provider[lastest_id].claimed = false;\n\t\t}\n\t\ttask[task_id].data_provider_id[provider] = lastest_id + 1;\n\t\ttask[task_id].data_provider[lastest_id].submit_data = data;\n\t\ttask[task_id].data_provider[lastest_id].submit_proof = proof;\n\t\ttask[task_id].register_count += 1;\n\t\ttask[task_id].submit_count += 1;\n\t\t//emit Register(data_provider, task_id);\n\t\temit Register(task_id,task[task_id].register_count);\n\t\temit Submit(task_id, task[task_id].submit_count);\n\t\t\n\t\tif(task[task_id].register_count == task[task_id].request.target) {\n\t\t    Stages oldStage = task[task_id].stage;\n\t\t\ttask[task_id].stage = Stages.aggregate;\n\t\t\temit StageTransfer(task_id, uint(task[task_id].stage), uint(oldStage));\n\t\t\t//emit RegisterCollected(task_id);\n\t\t}\n\t}\n\t\n\t// only for demo use, force to proceed to aggregate stage \n\tfunction stopRegisterAndSubmit(uint task_id) external {\n\t    require(atStage(task_id, Stages.register));\n\t    require(task[task_id].owner == msg.sender);\n\t    \n\t    Stages oldStage = task[task_id].stage;\n\t\ttask[task_id].stage = Stages.aggregate;\n\t\temit StageTransfer(task_id, uint(task[task_id].stage), uint(oldStage));\n\t}\n\n\tfunction aggregate(uint task_id, bytes calldata aggregation, bytes calldata qualifiedSets,bytes calldata share, bytes calldata attestatino) external {\n\t    require(atStage(task_id, Stages.aggregate));\n\t   \trequire(task[task_id].service_provider.account == msg.sender);\n\t   \trequire(qualifiedSets.length == task[task_id].register_count, \"wrong qualifiedSets length\");\n\t   \ttask[task_id].aggregate.aggregation = aggregation;\n\t   \ttask[task_id].aggregate.share = share;\n\t   \ttask[task_id].aggregate.attestatino = attestatino;\n\t   \tsetQualifiedDataProvider(task_id,qualifiedSets);\n\t   \temit Aggregate(task_id,aggregation);\n\t\tnextStage(task_id);\n\t\t//emit Aggregate(task_id);\n\t}\n\n\tfunction approve(uint task_id) external {\n\t    require(atStage(task_id, Stages.approve));\n\t    require(task[task_id].owner == msg.sender);\n\t    emit Approve(task_id);\n\t\tnextStage(task_id);\n\t\t//emit Approve(task_id);\n\t}\n\n\tfunction claim(uint task_id) external {\n\t\trequire(atStage(task_id, Stages.claim));\n\t    address payable user = msg.sender;\n\t    uint id = task[task_id].data_provider_id[user];\n\t    bool is_qualified_data_provider = !(id> task[task_id].register_count || id == 0) &&\n\t    !task[task_id].data_provider[id-1].claimed &&\n\t    task[task_id].data_provider[id-1].qualified;\n\t    bool is_service_provider = ( user == task[task_id].service_provider.account && !task[task_id].service_provider.claimed);\n\t    require (is_qualified_data_provider || is_service_provider);\n\t\tif (is_service_provider) {\n\t\t\t//user.transfer(task[task_id].request.service_fee);  // pay ether\n\t\t\ttoken.transfer(user,task[task_id].request.service_fee); //pay token\n\t\t\ttask[task_id].service_provider.claimed = true;\n\t\t\ttask[task_id].claim_count +=1;\n\t\t}\n\t\tif (is_qualified_data_provider){\n            token.transfer(user,task[task_id].request.data_fee);  // pay token\n\t\t\ttask[task_id].data_provider[id-1].claimed = true;\n\t\t\ttask[task_id].claim_count +=1;\n\t\t}\n\t\temit Claim(task_id,task[task_id].claim_count);\n\t\tif(task[task_id].claim_count == task[task_id].qualified_count + 1 ) {  // number of data_provider + service_provider\n\t\t    if(task[task_id].qualified_count!=task[task_id].request.target) {\n\t\t        uint refund = (task[task_id].request.target-task[task_id].qualified_count) * task[task_id].request.data_fee;\n\t\t        token.transfer(task[task_id].owner,refund);\n\t\t    }\n\t\t\ttask[task_id].busy = false;\n\t\t\ttask[task_id].register_count = 0;\n    \t\ttask[task_id].submit_count = 0;\n    \t\ttask[task_id].claim_count = 0;\n    \t\tdelete task[task_id].request;\n\t\t\tnextStage(task_id);\n\t\t}\n\t}\n\t\n\tfunction stopClaim(uint task_id) external {\n\t    require(atStage(task_id, Stages.claim));\n\t    nextStage(task_id);\n\t}\n\n}",
  "sourcePath": "/Users/anxin/Desktop/go-project/src/github.com/xxRanger/Percome19-Crowd-Demo/truffle/contracts/crowd.sol",
  "compiler": {
    "name": "solc",
    "version": "0.5.0+commit.1d4f565a.Emscripten.clang"
  },
  "schemaVersion": "3.0.2",
  "updatedAt": "2020-03-25T15:04:58.461Z",
  "devdoc": {
    "methods": {}
  },
  "userdoc": {
    "methods": {}
  }
}